{
  "contractName": "germesContract",
  "abi": [
    {
      "inputs": [],
      "stateMutability": "nonpayable",
      "type": "constructor"
    },
    {
      "stateMutability": "payable",
      "type": "receive"
    },
    {
      "inputs": [
        {
          "internalType": "address",
          "name": "_address",
          "type": "address"
        }
      ],
      "name": "isUser",
      "outputs": [
        {
          "internalType": "bool",
          "name": "",
          "type": "bool"
        }
      ],
      "stateMutability": "view",
      "type": "function"
    },
    {
      "inputs": [
        {
          "internalType": "address",
          "name": "newOwner",
          "type": "address"
        }
      ],
      "name": "transferOwnership",
      "outputs": [],
      "stateMutability": "nonpayable",
      "type": "function"
    },
    {
      "inputs": [
        {
          "internalType": "address",
          "name": "_address",
          "type": "address"
        }
      ],
      "name": "addUser",
      "outputs": [],
      "stateMutability": "nonpayable",
      "type": "function"
    },
    {
      "inputs": [
        {
          "internalType": "address",
          "name": "_address",
          "type": "address"
        }
      ],
      "name": "delUser",
      "outputs": [],
      "stateMutability": "nonpayable",
      "type": "function"
    },
    {
      "inputs": [
        {
          "internalType": "uint256",
          "name": "amountIn",
          "type": "uint256"
        },
        {
          "internalType": "address[]",
          "name": "path",
          "type": "address[]"
        }
      ],
      "name": "multyswap",
      "outputs": [],
      "stateMutability": "payable",
      "type": "function"
    },
    {
      "inputs": [],
      "name": "getOwner",
      "outputs": [
        {
          "internalType": "address",
          "name": "",
          "type": "address"
        }
      ],
      "stateMutability": "view",
      "type": "function"
    },
    {
      "inputs": [],
      "name": "getUsers",
      "outputs": [
        {
          "internalType": "address[]",
          "name": "",
          "type": "address[]"
        }
      ],
      "stateMutability": "view",
      "type": "function"
    },
    {
      "inputs": [
        {
          "internalType": "address",
          "name": "token",
          "type": "address"
        }
      ],
      "name": "balanceOf",
      "outputs": [
        {
          "internalType": "uint256",
          "name": "",
          "type": "uint256"
        }
      ],
      "stateMutability": "view",
      "type": "function"
    },
    {
      "inputs": [
        {
          "internalType": "address payable",
          "name": "to",
          "type": "address"
        }
      ],
      "name": "destroy",
      "outputs": [],
      "stateMutability": "nonpayable",
      "type": "function"
    }
  ],
  "bytecode": "0x6080604052739ac64cc6e4415144c455bd8e4837fea55603e5c3600360006101000a81548173ffffffffffffffffffffffffffffffffffffffff021916908373ffffffffffffffffffffffffffffffffffffffff160217905550600360009054906101000a900473ffffffffffffffffffffffffffffffffffffffff16600460006101000a81548173ffffffffffffffffffffffffffffffffffffffff021916908373ffffffffffffffffffffffffffffffffffffffff160217905550348015620000c957600080fd5b50336000806101000a81548173ffffffffffffffffffffffffffffffffffffffff021916908373ffffffffffffffffffffffffffffffffffffffff160217905550600160008054906101000a900473ffffffffffffffffffffffffffffffffffffffff169080600181540180825580915050600190039060005260206000200160009091909190916101000a81548173ffffffffffffffffffffffffffffffffffffffff021916908373ffffffffffffffffffffffffffffffffffffffff160217905550600460009054906101000a900473ffffffffffffffffffffffffffffffffffffffff1673ffffffffffffffffffffffffffffffffffffffff1663ad5c46486040518163ffffffff1660e01b815260040160206040518083038186803b158015620001f657600080fd5b505afa1580156200020b573d6000803e3d6000fd5b505050506040513d601f19601f820116820180604052508101906200023191906200028e565b600260006101000a81548173ffffffffffffffffffffffffffffffffffffffff021916908373ffffffffffffffffffffffffffffffffffffffff16021790555062000308565b6000815190506200028881620002ee565b92915050565b600060208284031215620002a157600080fd5b6000620002b18482850162000277565b91505092915050565b6000620002c782620002ce565b9050919050565b600073ffffffffffffffffffffffffffffffffffffffff82169050919050565b620002f981620002ba565b81146200030557600080fd5b50565b611bf880620003186000396000f3fe6080604052600436106100885760003560e01c8063421b2d8b11610059578063421b2d8b1461014157806370a082311461016a578063893d20e8146101a7578063f2fde38b146101d2578063f849f379146101fb5761008f565b8062ce8e3e14610094578062f55d9d146100bf5780632edb8456146100e85780634209fff1146101045761008f565b3661008f57005b600080fd5b3480156100a057600080fd5b506100a9610224565b6040516100b691906117e4565b60405180910390f35b3480156100cb57600080fd5b506100e660048036038101906100e19190611514565b6102b2565b005b61010260048036038101906100fd91906115d0565b610359565b005b34801561011057600080fd5b5061012b600480360381019061012691906114eb565b610e3d565b6040516101389190611806565b60405180910390f35b34801561014d57600080fd5b50610168600480360381019061016391906114eb565b610f10565b005b34801561017657600080fd5b50610191600480360381019061018c91906114eb565b611004565b60405161019e91906118ad565b60405180910390f35b3480156101b357600080fd5b506101bc6110f5565b6040516101c99190611769565b60405180910390f35b3480156101de57600080fd5b506101f960048036038101906101f491906114eb565b61111e565b005b34801561020757600080fd5b50610222600480360381019061021d91906114eb565b6111ef565b005b606060018054806020026020016040519081016040528092919081815260200182805480156102a857602002820191906000526020600020905b8160009054906101000a900473ffffffffffffffffffffffffffffffffffffffff1673ffffffffffffffffffffffffffffffffffffffff168152602001906001019080831161025e575b5050505050905090565b60008054906101000a900473ffffffffffffffffffffffffffffffffffffffff1673ffffffffffffffffffffffffffffffffffffffff163373ffffffffffffffffffffffffffffffffffffffff1614610340576040517f08c379a00000000000000000000000000000000000000000000000000000000081526004016103379061188d565b60405180910390fd5b8073ffffffffffffffffffffffffffffffffffffffff16ff5b61036233610e3d565b6103a1576040517f08c379a00000000000000000000000000000000000000000000000000000000081526004016103989061188d565b60405180910390fd5b600260009054906101000a900473ffffffffffffffffffffffffffffffffffffffff1673ffffffffffffffffffffffffffffffffffffffff1682826000818110610414577f4e487b7100000000000000000000000000000000000000000000000000000000600052603260045260246000fd5b905060200201602081019061042991906114eb565b73ffffffffffffffffffffffffffffffffffffffff16141561048c57348314610487576040517f08c379a000000000000000000000000000000000000000000000000000000000815260040161047e9061186d565b60405180910390fd5b61056b565b818160008181106104c6577f4e487b7100000000000000000000000000000000000000000000000000000000600052603260045260246000fd5b90506020020160208101906104db91906114eb565b73ffffffffffffffffffffffffffffffffffffffff166323b872dd3330866040518463ffffffff1660e01b815260040161051793929190611784565b602060405180830381600087803b15801561053157600080fd5b505af1158015610545573d6000803e3d6000fd5b505050506040513d601f19601f82011682018060405250810190610569919061157e565b505b60005b60018383905061057e9190611a1f565b811015610e3757600080600267ffffffffffffffff8111156105c9577f4e487b7100000000000000000000000000000000000000000000000000000000600052604160045260246000fd5b6040519080825280602002602001820160405280156105f75781602001602082028036833780820191505090505b509050848484818110610633577f4e487b7100000000000000000000000000000000000000000000000000000000600052603260045260246000fd5b905060200201602081019061064891906114eb565b81600081518110610682577f4e487b7100000000000000000000000000000000000000000000000000000000600052603260045260246000fd5b602002602001019073ffffffffffffffffffffffffffffffffffffffff16908173ffffffffffffffffffffffffffffffffffffffff168152505084846001856106cb91906119c9565b818110610701577f4e487b7100000000000000000000000000000000000000000000000000000000600052603260045260246000fd5b905060200201602081019061071691906114eb565b81600181518110610750577f4e487b7100000000000000000000000000000000000000000000000000000000600052603260045260246000fd5b602002602001019073ffffffffffffffffffffffffffffffffffffffff16908173ffffffffffffffffffffffffffffffffffffffff168152505060028585905061079a9190611a1f565b8314156107a9573391506107ad565b3091505b600260009054906101000a900473ffffffffffffffffffffffffffffffffffffffff1673ffffffffffffffffffffffffffffffffffffffff1685858581811061081f577f4e487b7100000000000000000000000000000000000000000000000000000000600052603260045260246000fd5b905060200201602081019061083491906114eb565b73ffffffffffffffffffffffffffffffffffffffff16141561095e57600460009054906101000a900473ffffffffffffffffffffffffffffffffffffffff1673ffffffffffffffffffffffffffffffffffffffff16637ff36ab587600084866064426108a091906119c9565b6040518663ffffffff1660e01b81526004016108bf9493929190611821565b6000604051808303818588803b1580156108d857600080fd5b505af11580156108ec573d6000803e3d6000fd5b50505050506040513d6000823e3d601f19601f82011682018060405250810190610916919061153d565b60018151811061094f577f4e487b7100000000000000000000000000000000000000000000000000000000600052603260045260246000fd5b60200260200101519550610e22565b600260009054906101000a900473ffffffffffffffffffffffffffffffffffffffff1673ffffffffffffffffffffffffffffffffffffffff1685856001866109a691906119c9565b8181106109dc577f4e487b7100000000000000000000000000000000000000000000000000000000600052603260045260246000fd5b90506020020160208101906109f191906114eb565b73ffffffffffffffffffffffffffffffffffffffff161415610c1957848484818110610a46577f4e487b7100000000000000000000000000000000000000000000000000000000600052603260045260246000fd5b9050602002016020810190610a5b91906114eb565b73ffffffffffffffffffffffffffffffffffffffff1663095ea7b3600360009054906101000a900473ffffffffffffffffffffffffffffffffffffffff16886040518363ffffffff1660e01b8152600401610ab79291906117bb565b602060405180830381600087803b158015610ad157600080fd5b505af1158015610ae5573d6000803e3d6000fd5b505050506040513d601f19601f82011682018060405250810190610b09919061157e565b50600460009054906101000a900473ffffffffffffffffffffffffffffffffffffffff1673ffffffffffffffffffffffffffffffffffffffff166318cbafe58760008486606442610b5a91906119c9565b6040518663ffffffff1660e01b8152600401610b7a9594939291906118c8565b600060405180830381600087803b158015610b9457600080fd5b505af1158015610ba8573d6000803e3d6000fd5b505050506040513d6000823e3d601f19601f82011682018060405250810190610bd1919061153d565b600181518110610c0a577f4e487b7100000000000000000000000000000000000000000000000000000000600052603260045260246000fd5b60200260200101519550610e21565b848484818110610c52577f4e487b7100000000000000000000000000000000000000000000000000000000600052603260045260246000fd5b9050602002016020810190610c6791906114eb565b73ffffffffffffffffffffffffffffffffffffffff1663095ea7b3600360009054906101000a900473ffffffffffffffffffffffffffffffffffffffff16886040518363ffffffff1660e01b8152600401610cc39291906117bb565b602060405180830381600087803b158015610cdd57600080fd5b505af1158015610cf1573d6000803e3d6000fd5b505050506040513d601f19601f82011682018060405250810190610d15919061157e565b50600460009054906101000a900473ffffffffffffffffffffffffffffffffffffffff1673ffffffffffffffffffffffffffffffffffffffff166338ed17398760008486606442610d6691906119c9565b6040518663ffffffff1660e01b8152600401610d869594939291906118c8565b600060405180830381600087803b158015610da057600080fd5b505af1158015610db4573d6000803e3d6000fd5b505050506040513d6000823e3d601f19601f82011682018060405250810190610ddd919061153d565b600181518110610e16577f4e487b7100000000000000000000000000000000000000000000000000000000600052603260045260246000fd5b602002602001015195505b5b50508080610e2f90611abf565b91505061056e565b50505050565b600080600090505b600180549050811015610f05578273ffffffffffffffffffffffffffffffffffffffff1660018281548110610ea3577f4e487b7100000000000000000000000000000000000000000000000000000000600052603260045260246000fd5b9060005260206000200160009054906101000a900473ffffffffffffffffffffffffffffffffffffffff1673ffffffffffffffffffffffffffffffffffffffff161415610ef4576001915050610f0b565b80610efe90611abf565b9050610e45565b50600090505b919050565b60008054906101000a900473ffffffffffffffffffffffffffffffffffffffff1673ffffffffffffffffffffffffffffffffffffffff163373ffffffffffffffffffffffffffffffffffffffff1614610f9e576040517f08c379a0000000000000000000000000000000000000000000000000000000008152600401610f959061188d565b60405180910390fd5b6001819080600181540180825580915050600190039060005260206000200160009091909190916101000a81548173ffffffffffffffffffffffffffffffffffffffff021916908373ffffffffffffffffffffffffffffffffffffffff16021790555050565b6000600260009054906101000a900473ffffffffffffffffffffffffffffffffffffffff1673ffffffffffffffffffffffffffffffffffffffff168273ffffffffffffffffffffffffffffffffffffffff161415611064574790506110f0565b8173ffffffffffffffffffffffffffffffffffffffff166370a08231306040518263ffffffff1660e01b815260040161109d9190611769565b60206040518083038186803b1580156110b557600080fd5b505afa1580156110c9573d6000803e3d6000fd5b505050506040513d601f19601f820116820180604052508101906110ed91906115a7565b90505b919050565b60008060009054906101000a900473ffffffffffffffffffffffffffffffffffffffff16905090565b60008054906101000a900473ffffffffffffffffffffffffffffffffffffffff1673ffffffffffffffffffffffffffffffffffffffff163373ffffffffffffffffffffffffffffffffffffffff16146111ac576040517f08c379a00000000000000000000000000000000000000000000000000000000081526004016111a39061188d565b60405180910390fd5b806000806101000a81548173ffffffffffffffffffffffffffffffffffffffff021916908373ffffffffffffffffffffffffffffffffffffffff16021790555050565b60008054906101000a900473ffffffffffffffffffffffffffffffffffffffff1673ffffffffffffffffffffffffffffffffffffffff163373ffffffffffffffffffffffffffffffffffffffff161461127d576040517f08c379a00000000000000000000000000000000000000000000000000000000081526004016112749061188d565b60405180910390fd5b60005b60018054905081101561139e578173ffffffffffffffffffffffffffffffffffffffff16600182815481106112de577f4e487b7100000000000000000000000000000000000000000000000000000000600052603260045260246000fd5b9060005260206000200160009054906101000a900473ffffffffffffffffffffffffffffffffffffffff1673ffffffffffffffffffffffffffffffffffffffff16141561138d576001818154811061135f577f4e487b7100000000000000000000000000000000000000000000000000000000600052603260045260246000fd5b9060005260206000200160006101000a81549073ffffffffffffffffffffffffffffffffffffffff02191690555b8061139790611abf565b9050611280565b5050565b60006113b56113b084611953565b611922565b905080838252602082019050828560208602820111156113d457600080fd5b60005b8581101561140457816113ea88826114d6565b8452602084019350602083019250506001810190506113d7565b5050509392505050565b60008135905061141d81611b66565b92915050565b60008135905061143281611b7d565b92915050565b60008083601f84011261144a57600080fd5b8235905067ffffffffffffffff81111561146357600080fd5b60208301915083602082028301111561147b57600080fd5b9250929050565b600082601f83011261149357600080fd5b81516114a38482602086016113a2565b91505092915050565b6000815190506114bb81611b94565b92915050565b6000813590506114d081611bab565b92915050565b6000815190506114e581611bab565b92915050565b6000602082840312156114fd57600080fd5b600061150b8482850161140e565b91505092915050565b60006020828403121561152657600080fd5b600061153484828501611423565b91505092915050565b60006020828403121561154f57600080fd5b600082015167ffffffffffffffff81111561156957600080fd5b61157584828501611482565b91505092915050565b60006020828403121561159057600080fd5b600061159e848285016114ac565b91505092915050565b6000602082840312156115b957600080fd5b60006115c7848285016114d6565b91505092915050565b6000806000604084860312156115e557600080fd5b60006115f3868287016114c1565b935050602084013567ffffffffffffffff81111561161057600080fd5b61161c86828701611438565b92509250509250925092565b60006116348383611640565b60208301905092915050565b61164981611a53565b82525050565b61165881611a53565b82525050565b60006116698261198f565b61167381856119a7565b935061167e8361197f565b8060005b838110156116af5781516116968882611628565b97506116a18361199a565b925050600181019050611682565b5085935050505092915050565b6116c581611a77565b82525050565b6116d481611aad565b82525050565b60006116e76015836119b8565b91507f4765726d65733a20494e56414c49445f494e50555400000000000000000000006000830152602082019050919050565b60006117276015836119b8565b91507f4765726d65733a204143434553535f44454e49454400000000000000000000006000830152602082019050919050565b61176381611aa3565b82525050565b600060208201905061177e600083018461164f565b92915050565b6000606082019050611799600083018661164f565b6117a6602083018561164f565b6117b3604083018461175a565b949350505050565b60006040820190506117d0600083018561164f565b6117dd602083018461175a565b9392505050565b600060208201905081810360008301526117fe818461165e565b905092915050565b600060208201905061181b60008301846116bc565b92915050565b600060808201905061183660008301876116cb565b8181036020830152611848818661165e565b9050611857604083018561164f565b611864606083018461175a565b95945050505050565b60006020820190508181036000830152611886816116da565b9050919050565b600060208201905081810360008301526118a68161171a565b9050919050565b60006020820190506118c2600083018461175a565b92915050565b600060a0820190506118dd600083018861175a565b6118ea60208301876116cb565b81810360408301526118fc818661165e565b905061190b606083018561164f565b611918608083018461175a565b9695505050505050565b6000604051905081810181811067ffffffffffffffff8211171561194957611948611b37565b5b8060405250919050565b600067ffffffffffffffff82111561196e5761196d611b37565b5b602082029050602081019050919050565b6000819050602082019050919050565b600081519050919050565b6000602082019050919050565b600082825260208201905092915050565b600082825260208201905092915050565b60006119d482611aa3565b91506119df83611aa3565b9250827fffffffffffffffffffffffffffffffffffffffffffffffffffffffffffffffff03821115611a1457611a13611b08565b5b828201905092915050565b6000611a2a82611aa3565b9150611a3583611aa3565b925082821015611a4857611a47611b08565b5b828203905092915050565b6000611a5e82611a83565b9050919050565b6000611a7082611a83565b9050919050565b60008115159050919050565b600073ffffffffffffffffffffffffffffffffffffffff82169050919050565b6000819050919050565b6000611ab882611aa3565b9050919050565b6000611aca82611aa3565b91507fffffffffffffffffffffffffffffffffffffffffffffffffffffffffffffffff821415611afd57611afc611b08565b5b600182019050919050565b7f4e487b7100000000000000000000000000000000000000000000000000000000600052601160045260246000fd5b7f4e487b7100000000000000000000000000000000000000000000000000000000600052604160045260246000fd5b611b6f81611a53565b8114611b7a57600080fd5b50565b611b8681611a65565b8114611b9157600080fd5b50565b611b9d81611a77565b8114611ba857600080fd5b50565b611bb481611aa3565b8114611bbf57600080fd5b5056fea2646970667358221220e24ef5a90acd16c5f6220fbb1c3684881c29e379f8854d9a3cd72d9b7292992664736f6c63430008000033",
  "immutableReferences": {},
  "source": "pragma solidity 0.8.0;\r\n\r\ninterface IBEP20 {\r\n    function totalSupply() external view returns (uint256);\r\n    function decimals() external view returns (uint8);\r\n    function symbol() external view returns (string memory);\r\n    function getOwner() external view returns (address);\r\n    function balanceOf(address account) external view returns (uint256);\r\n    function transfer(address recipient, uint256 amount) external returns (bool);\r\n    function allowance(address _owner, address spender) external view returns (uint256);\r\n    function approve(address spender, uint256 amount) external returns (bool);\r\n    function transferFrom(address sender, address recipient, uint256 amount) external returns (bool);\r\n    event Transfer(address indexed from, address indexed to, uint256 value);\r\n    event Approval(address indexed owner, address indexed spender, uint256 value);\r\n}\r\n\r\ninterface IPancakeRouter01 {\r\n\r\n   function WETH() external pure returns (address);\r\n\r\n   function swapExactETHForTokens(\r\n      uint amountOutMin,\r\n      address[] calldata path,\r\n      address to,\r\n      uint deadline\r\n   )\r\n      external\r\n      payable\r\n      returns (uint[] memory amounts);\r\n\r\n   function swapExactTokensForETH(\r\n      uint amountIn,\r\n      uint amountOutMin,\r\n      address[] calldata path,\r\n      address to,\r\n      uint deadline\r\n   )\r\n      external\r\n      returns (uint[] memory amounts);\r\n\r\n   function swapExactTokensForTokens(\r\n      uint amountIn,\r\n      uint amountOutMin,\r\n      address[] calldata path,\r\n      address to,\r\n      uint deadline\r\n   )\r\n      external\r\n      returns (uint[] memory amounts);\r\n\r\n   function getAmountsOut(\r\n      uint amountIn,\r\n      address[] calldata path\r\n   )\r\n      external\r\n      view\r\n      returns (uint[] memory amounts);\r\n}\r\n\r\ncontract germesContract {\r\n\r\n   address owner;\r\n   address[] users;\r\n   address WETH;\r\n   address routerAddress = 0x9Ac64Cc6e4415144C455BD8E4837Fea55603e5c3;\r\n   IPancakeRouter01 router = IPancakeRouter01(routerAddress);\r\n\r\n   constructor() {\r\n      owner = msg.sender;\r\n      users.push(owner);\r\n      WETH = router.WETH();\r\n   }\r\n\r\n   function isUser(address _address) public view returns (bool) {\r\n      for (uint i = 0; i < users.length; ++i) {\r\n         if (users[i] == _address) {\r\n            return true;\r\n         }\r\n      }\r\n      return false;\r\n   }\r\n\r\n   modifier onlyUsers() {\r\n      require(isUser(msg.sender), \"Germes: ACCESS_DENIED\");\r\n      _;\r\n   }\r\n\r\n   modifier onlyOwner() {\r\n      require(msg.sender == owner, \"Germes: ACCESS_DENIED\");\r\n      _;\r\n   }\r\n\r\n   receive() payable external {}\r\n\r\n   function transferOwnership(address newOwner) external onlyOwner{\r\n      owner = newOwner;\r\n   }\r\n\r\n   function addUser(address _address) external onlyOwner {\r\n      users.push(_address);\r\n   }\r\n\r\n   function delUser(address _address) external onlyOwner {\r\n      for (uint i = 0; i < users.length; ++i) {\r\n         if (users[i] == _address) {\r\n            delete users[i];     \r\n         }\r\n      }\r\n   }\r\n\r\n   function multyswap(uint256 amountIn, address[] calldata path) external payable onlyUsers{\r\n      if (path[0] == WETH) {\r\n         require(amountIn == msg.value, \"Germes: INVALID_INPUT\");\r\n      } else {\r\n         IBEP20(path[0]).transferFrom(msg.sender, address(this), amountIn);\r\n      }\r\n\r\n      for (uint i = 0; i < path.length-1; i++) {\r\n         address receiver;\r\n         address[] memory tempPath = new address[](2);\r\n\r\n         tempPath[0] = path[i];\r\n         tempPath[1] = path[i+1];\r\n\r\n         if (i == path.length-2) {\r\n            receiver = msg.sender;\r\n         } else {\r\n            receiver = address(this);\r\n         }\r\n\r\n         if (path[i] == WETH) {\r\n            amountIn = router.swapExactETHForTokens{value: amountIn}(\r\n               0,\r\n               tempPath,\r\n               receiver,\r\n               block.timestamp + 100\r\n            )[1];\r\n\r\n         } else if (path[i+1] == WETH) {\r\n            IBEP20(path[i]).approve(routerAddress, amountIn);\r\n            amountIn = router.swapExactTokensForETH(\r\n               amountIn,\r\n               0,\r\n               tempPath,\r\n               receiver,\r\n               block.timestamp + 100\r\n            )[1];\r\n\r\n         } else {\r\n            IBEP20(path[i]).approve(routerAddress, amountIn);\r\n            amountIn = router.swapExactTokensForTokens(\r\n               amountIn,\r\n               0,\r\n               tempPath,\r\n               receiver,\r\n               block.timestamp + 100\r\n            )[1];\r\n         }\r\n      }\r\n   }\r\n\r\n   function getOwner() external view returns (address) {\r\n      return owner;\r\n   }\r\n\r\n   function getUsers() external view returns (address [] memory) {\r\n      return users;\r\n   }\r\n\r\n   function balanceOf(address token) external view returns(uint256) {\r\n      if (token == WETH) {\r\n         return address(this).balance;\r\n      } else {\r\n         return IBEP20(token).balanceOf(address(this));\r\n      }\r\n   }\r\n\r\n   function destroy(address payable to) public onlyOwner{\r\n      selfdestruct(to);\r\n   }\r\n\r\n}",
  "sourcePath": "C:\\Users\\xmari\\Documents\\projects\\germes\\contract\\contracts\\contract.sol",
  "compiler": {
    "name": "solc",
    "version": "0.8.0+commit.c7dfd78e.Emscripten.clang"
  },
  "schemaVersion": "3.4.4",
  "updatedAt": "2022-01-15T20:44:30.455Z",
  "devdoc": {
    "kind": "dev",
    "methods": {},
    "version": 1
  },
  "userdoc": {
    "kind": "user",
    "methods": {},
    "version": 1
  }
}