{
  "contractName": "gg",
  "abi": [
    {
      "inputs": [],
      "stateMutability": "nonpayable",
      "type": "constructor"
    },
    {
      "anonymous": false,
      "inputs": [
        {
          "indexed": false,
          "internalType": "address[]",
          "name": "pair",
          "type": "address[]"
        },
        {
          "indexed": false,
          "internalType": "address",
          "name": "receiver",
          "type": "address"
        },
        {
          "indexed": false,
          "internalType": "uint256",
          "name": "amountIn",
          "type": "uint256"
        }
      ],
      "name": "log",
      "type": "event"
    },
    {
      "stateMutability": "payable",
      "type": "receive"
    },
    {
      "inputs": [
        {
          "internalType": "address[]",
          "name": "path",
          "type": "address[]"
        },
        {
          "internalType": "uint256",
          "name": "amountIn",
          "type": "uint256"
        }
      ],
      "name": "swap",
      "outputs": [],
      "stateMutability": "payable",
      "type": "function"
    },
    {
      "inputs": [
        {
          "internalType": "address[]",
          "name": "path",
          "type": "address[]"
        },
        {
          "internalType": "uint256",
          "name": "amountIn",
          "type": "uint256"
        }
      ],
      "name": "multyswap",
      "outputs": [],
      "stateMutability": "payable",
      "type": "function"
    }
  ],
  "bytecode": "0x608060405234801561001057600080fd5b5073ae13d989dac2f0debff460ac112a837c89baa7cd6000806101000a81548173ffffffffffffffffffffffffffffffffffffffff021916908373ffffffffffffffffffffffffffffffffffffffff16021790555073d99d1c33f9fc3444f8101754abc46c52416550d1600160006101000a81548173ffffffffffffffffffffffffffffffffffffffff021916908373ffffffffffffffffffffffffffffffffffffffff160217905550611797806100c96000396000f3fe60806040526004361061002d5760003560e01c8063708bd7ec14610039578063b18834aa1461005557610034565b3661003457005b600080fd5b610053600480360381019061004e919061114d565b610071565b005b61006f600480360381019061006a919061114d565b610b6d565b005b6000600267ffffffffffffffff8111156100b4577f4e487b7100000000000000000000000000000000000000000000000000000000600052604160045260246000fd5b6040519080825280602002602001820160405280156100e25781602001602082028036833780820191505090505b50905060008060009054906101000a900473ffffffffffffffffffffffffffffffffffffffff1673ffffffffffffffffffffffffffffffffffffffff1685856000818110610159577f4e487b7100000000000000000000000000000000000000000000000000000000600052603260045260246000fd5b905060200201602081019061016e9190611124565b73ffffffffffffffffffffffffffffffffffffffff161461026c57848460008181106101c3577f4e487b7100000000000000000000000000000000000000000000000000000000600052603260045260246000fd5b90506020020160208101906101d89190611124565b73ffffffffffffffffffffffffffffffffffffffff166323b872dd3330866040518463ffffffff1660e01b815260040161021493929190611362565b602060405180830381600087803b15801561022e57600080fd5b505af1158015610242573d6000803e3d6000fd5b505050506040513d601f19601f8201168201806040525081019061026691906111e6565b50610270565b3492505b60005b60018686905061028391906115f9565b8160ff161015610b655785858260ff168181106102c9577f4e487b7100000000000000000000000000000000000000000000000000000000600052603260045260246000fd5b90506020020160208101906102de9190611124565b83600081518110610318577f4e487b7100000000000000000000000000000000000000000000000000000000600052603260045260246000fd5b602002602001019073ffffffffffffffffffffffffffffffffffffffff16908173ffffffffffffffffffffffffffffffffffffffff1681525050858560018361036191906115c2565b60ff1681811061039a577f4e487b7100000000000000000000000000000000000000000000000000000000600052603260045260246000fd5b90506020020160208101906103af9190611124565b836001815181106103e9577f4e487b7100000000000000000000000000000000000000000000000000000000600052603260045260246000fd5b602002602001019073ffffffffffffffffffffffffffffffffffffffff16908173ffffffffffffffffffffffffffffffffffffffff168152505060028686905061043391906115f9565b8160ff161461044457309150610448565b3391505b60008054906101000a900473ffffffffffffffffffffffffffffffffffffffff1673ffffffffffffffffffffffffffffffffffffffff16836000815181106104b9577f4e487b7100000000000000000000000000000000000000000000000000000000600052603260045260246000fd5b602002602001015173ffffffffffffffffffffffffffffffffffffffff16141561067757600160009054906101000a900473ffffffffffffffffffffffffffffffffffffffff1673ffffffffffffffffffffffffffffffffffffffff16637ff36ab585600089898760644261052e919061156c565b6040518763ffffffff1660e01b815260040161054e959493929190611400565b6000604051808303818588803b15801561056757600080fd5b505af115801561057b573d6000803e3d6000fd5b50505050506040513d6000823e3d601f19601f820116820180604052508101906105a591906111a5565b50826001815181106105e0577f4e487b7100000000000000000000000000000000000000000000000000000000600052603260045260246000fd5b602002602001015173ffffffffffffffffffffffffffffffffffffffff166370a08231306040518263ffffffff1660e01b81526004016106209190611347565b60206040518083038186803b15801561063857600080fd5b505afa15801561064c573d6000803e3d6000fd5b505050506040513d601f19601f82011682018060405250810190610670919061120f565b9350610b54565b60008054906101000a900473ffffffffffffffffffffffffffffffffffffffff1673ffffffffffffffffffffffffffffffffffffffff16836001815181106106e8577f4e487b7100000000000000000000000000000000000000000000000000000000600052603260045260246000fd5b602002602001015173ffffffffffffffffffffffffffffffffffffffff1614156108cd5782600081518110610746577f4e487b7100000000000000000000000000000000000000000000000000000000600052603260045260246000fd5b602002602001015173ffffffffffffffffffffffffffffffffffffffff1663095ea7b3600160009054906101000a900473ffffffffffffffffffffffffffffffffffffffff16866040518363ffffffff1660e01b81526004016107aa929190611399565b602060405180830381600087803b1580156107c457600080fd5b505af11580156107d8573d6000803e3d6000fd5b505050506040513d601f19601f820116820180604052508101906107fc91906111e6565b50600160009054906101000a900473ffffffffffffffffffffffffffffffffffffffff1673ffffffffffffffffffffffffffffffffffffffff166318cbafe5856000868660644261084d919061156c565b6040518663ffffffff1660e01b815260040161086d95949392919061144e565b600060405180830381600087803b15801561088757600080fd5b505af115801561089b573d6000803e3d6000fd5b505050506040513d6000823e3d601f19601f820116820180604052508101906108c491906111a5565b50479350610b53565b82600081518110610907577f4e487b7100000000000000000000000000000000000000000000000000000000600052603260045260246000fd5b602002602001015173ffffffffffffffffffffffffffffffffffffffff1663095ea7b3600160009054906101000a900473ffffffffffffffffffffffffffffffffffffffff16866040518363ffffffff1660e01b815260040161096b929190611399565b602060405180830381600087803b15801561098557600080fd5b505af1158015610999573d6000803e3d6000fd5b505050506040513d601f19601f820116820180604052508101906109bd91906111e6565b50600160009054906101000a900473ffffffffffffffffffffffffffffffffffffffff1673ffffffffffffffffffffffffffffffffffffffff166338ed17398560008686606442610a0e919061156c565b6040518663ffffffff1660e01b8152600401610a2e95949392919061144e565b600060405180830381600087803b158015610a4857600080fd5b505af1158015610a5c573d6000803e3d6000fd5b505050506040513d6000823e3d601f19601f82011682018060405250810190610a8591906111a5565b5082600181518110610ac0577f4e487b7100000000000000000000000000000000000000000000000000000000600052603260045260246000fd5b602002602001015173ffffffffffffffffffffffffffffffffffffffff166370a08231306040518263ffffffff1660e01b8152600401610b009190611347565b60206040518083038186803b158015610b1857600080fd5b505afa158015610b2c573d6000803e3d6000fd5b505050506040513d601f19601f82011682018060405250810190610b50919061120f565b93505b5b80610b5e90611694565b9050610273565b505050505050565b6000600267ffffffffffffffff811115610bb0577f4e487b7100000000000000000000000000000000000000000000000000000000600052604160045260246000fd5b604051908082528060200260200182016040528015610bde5781602001602082028036833780820191505090505b50905060008060009054906101000a900473ffffffffffffffffffffffffffffffffffffffff1673ffffffffffffffffffffffffffffffffffffffff1685856000818110610c55577f4e487b7100000000000000000000000000000000000000000000000000000000600052603260045260246000fd5b9050602002016020810190610c6a9190611124565b73ffffffffffffffffffffffffffffffffffffffff1614610c8a57610c8e565b3492505b60005b600186869050610ca191906115f9565b8160ff161015610fe85785858260ff16818110610ce7577f4e487b7100000000000000000000000000000000000000000000000000000000600052603260045260246000fd5b9050602002016020810190610cfc9190611124565b83600081518110610d36577f4e487b7100000000000000000000000000000000000000000000000000000000600052603260045260246000fd5b602002602001019073ffffffffffffffffffffffffffffffffffffffff16908173ffffffffffffffffffffffffffffffffffffffff16815250508585600183610d7f91906115c2565b60ff16818110610db8577f4e487b7100000000000000000000000000000000000000000000000000000000600052603260045260246000fd5b9050602002016020810190610dcd9190611124565b83600181518110610e07577f4e487b7100000000000000000000000000000000000000000000000000000000600052603260045260246000fd5b602002602001019073ffffffffffffffffffffffffffffffffffffffff16908173ffffffffffffffffffffffffffffffffffffffff1681525050600286869050610e5191906115f9565b8160ff1614610e6257309150610e66565b3391505b60008054906101000a900473ffffffffffffffffffffffffffffffffffffffff1673ffffffffffffffffffffffffffffffffffffffff1683600081518110610ed7577f4e487b7100000000000000000000000000000000000000000000000000000000600052603260045260246000fd5b602002602001015173ffffffffffffffffffffffffffffffffffffffff161415610f0057610f9c565b60008054906101000a900473ffffffffffffffffffffffffffffffffffffffff1673ffffffffffffffffffffffffffffffffffffffff1683600181518110610f71577f4e487b7100000000000000000000000000000000000000000000000000000000600052603260045260246000fd5b602002602001015173ffffffffffffffffffffffffffffffffffffffff161415610f9a57610f9b565b5b5b7f255991c3308390f552e92fa2077061a8b152373658daa711498d32042dcd65a0838386604051610fcf939291906113c2565b60405180910390a180610fe190611694565b9050610c91565b505050505050565b6000611003610ffe846114d9565b6114a8565b9050808382526020820190508285602086028201111561102257600080fd5b60005b858110156110525781611038888261110f565b845260208401935060208301925050600181019050611025565b5050509392505050565b60008135905061106b8161171c565b92915050565b60008083601f84011261108357600080fd5b8235905067ffffffffffffffff81111561109c57600080fd5b6020830191508360208202830111156110b457600080fd5b9250929050565b600082601f8301126110cc57600080fd5b81516110dc848260208601610ff0565b91505092915050565b6000815190506110f481611733565b92915050565b6000813590506111098161174a565b92915050565b60008151905061111e8161174a565b92915050565b60006020828403121561113657600080fd5b60006111448482850161105c565b91505092915050565b60008060006040848603121561116257600080fd5b600084013567ffffffffffffffff81111561117c57600080fd5b61118886828701611071565b9350935050602061119b868287016110fa565b9150509250925092565b6000602082840312156111b757600080fd5b600082015167ffffffffffffffff8111156111d157600080fd5b6111dd848285016110bb565b91505092915050565b6000602082840312156111f857600080fd5b6000611206848285016110e5565b91505092915050565b60006020828403121561122157600080fd5b600061122f8482850161110f565b91505092915050565b60006112448383611250565b60208301905092915050565b6112598161162d565b82525050565b6112688161162d565b82525050565b600061127a8385611544565b935061128582611505565b8060005b858110156112be5761129b8284611555565b6112a58882611238565b97506112b08361152a565b925050600181019050611289565b5085925050509392505050565b60006112d68261151f565b6112e08185611544565b93506112eb8361150f565b8060005b8381101561131c5781516113038882611238565b975061130e83611537565b9250506001810190506112ef565b5085935050505092915050565b61133281611682565b82525050565b6113418161166b565b82525050565b600060208201905061135c600083018461125f565b92915050565b6000606082019050611377600083018661125f565b611384602083018561125f565b6113916040830184611338565b949350505050565b60006040820190506113ae600083018561125f565b6113bb6020830184611338565b9392505050565b600060608201905081810360008301526113dc81866112cb565b90506113eb602083018561125f565b6113f86040830184611338565b949350505050565b60006080820190506114156000830188611329565b818103602083015261142881868861126e565b9050611437604083018561125f565b6114446060830184611338565b9695505050505050565b600060a0820190506114636000830188611338565b6114706020830187611329565b818103604083015261148281866112cb565b9050611491606083018561125f565b61149e6080830184611338565b9695505050505050565b6000604051905081810181811067ffffffffffffffff821117156114cf576114ce6116ed565b5b8060405250919050565b600067ffffffffffffffff8211156114f4576114f36116ed565b5b602082029050602081019050919050565b6000819050919050565b6000819050602082019050919050565b600081519050919050565b6000602082019050919050565b6000602082019050919050565b600082825260208201905092915050565b6000611564602084018461105c565b905092915050565b60006115778261166b565b91506115828361166b565b9250827fffffffffffffffffffffffffffffffffffffffffffffffffffffffffffffffff038211156115b7576115b66116be565b5b828201905092915050565b60006115cd82611675565b91506115d883611675565b92508260ff038211156115ee576115ed6116be565b5b828201905092915050565b60006116048261166b565b915061160f8361166b565b925082821015611622576116216116be565b5b828203905092915050565b60006116388261164b565b9050919050565b60008115159050919050565b600073ffffffffffffffffffffffffffffffffffffffff82169050919050565b6000819050919050565b600060ff82169050919050565b600061168d8261166b565b9050919050565b600061169f82611675565b915060ff8214156116b3576116b26116be565b5b600182019050919050565b7f4e487b7100000000000000000000000000000000000000000000000000000000600052601160045260246000fd5b7f4e487b7100000000000000000000000000000000000000000000000000000000600052604160045260246000fd5b6117258161162d565b811461173057600080fd5b50565b61173c8161163f565b811461174757600080fd5b50565b6117538161166b565b811461175e57600080fd5b5056fea2646970667358221220dd2ce64e39dd1ea62b89222cc49557950eb1bde12dc49d972e23872971a1a23d64736f6c63430008000033",
  "immutableReferences": {},
  "source": "pragma solidity 0.8.0;\r\n\r\ninterface IBEP20 {\r\n    function totalSupply() external view returns (uint256);\r\n    function decimals() external view returns (uint8);\r\n    function symbol() external view returns (string memory);\r\n    function getOwner() external view returns (address);\r\n    function balanceOf(address account) external view returns (uint256);\r\n    function transfer(address recipient, uint256 amount) external returns (bool);\r\n    function allowance(address _owner, address spender) external view returns (uint256);\r\n    function approve(address spender, uint256 amount) external returns (bool);\r\n    function transferFrom(address sender, address recipient, uint256 amount) external returns (bool);\r\n    event Transfer(address indexed from, address indexed to, uint256 value);\r\n    event Approval(address indexed owner, address indexed spender, uint256 value);\r\n}\r\n\r\ninterface IPancakeRouter01 {\r\n   function swapExactETHForTokens(\r\n      uint amountOutMin,\r\n      address[] calldata path,\r\n      address to,\r\n      uint deadline\r\n   )\r\n      external\r\n      payable\r\n      returns (uint[] memory amounts);\r\n\r\n   function swapExactTokensForETH(\r\n      uint amountIn,\r\n      uint amountOutMin,\r\n      address[] calldata path,\r\n      address to,\r\n      uint deadline\r\n   )\r\n      external\r\n      returns (uint[] memory amounts);\r\n\r\n   function swapExactTokensForTokens(\r\n      uint amountIn,\r\n      uint amountOutMin,\r\n      address[] calldata path,\r\n      address to,\r\n      uint deadline\r\n   )\r\n      external\r\n      returns (uint[] memory amounts);\r\n\r\n   function getAmountsOut(\r\n      uint amountIn,\r\n      address[] calldata path\r\n   )\r\n      external\r\n      view\r\n      returns (uint[] memory amounts);\r\n\r\n   function getAmountsIn(\r\n      uint amountOut,\r\n      address[] calldata path\r\n   )\r\n      external\r\n      view\r\n      returns (uint[] memory amounts);\r\n}\r\n\r\ncontract gg {\r\n\r\n   address WBNB;\r\n   address pancakeRouterAddress;\r\n\r\n   constructor() {\r\n        WBNB = 0xae13d989daC2f0dEbFf460aC112a837C89BAa7cd;\r\n        pancakeRouterAddress = 0xD99D1c33F9fC3444f8101754aBC46c52416550D1;\r\n   }\r\n   receive() payable external {}\r\n\r\n   event log(address[] pair, address receiver, uint256 amountIn);\r\n\r\n   function swap(address[] calldata path, uint256 amountIn) external payable {  \r\n      address[] memory tempPath = new address[](2);\r\n      address receiver;\r\n\r\n      if (path[0]!=WBNB) {\r\n         //IBEP20(path[0]).transferFrom(msg.sender, address(this), amountIn);\r\n      } else {\r\n         amountIn = msg.value;\r\n      }\r\n\r\n      for (uint8 i=0; i<path.length-1; ++i) {\r\n         tempPath[0] = path[i];\r\n         tempPath[1] = path[i+1];\r\n         if (i != path.length-2) {\r\n            receiver = address(this);\r\n         } else {\r\n            receiver = msg.sender;\r\n         }\r\n         if (tempPath[0] == WBNB) {\r\n         } else if (tempPath[1] == WBNB) {\r\n         } else {\r\n         } \r\n         emit log(tempPath, receiver, amountIn);\r\n      }\r\n   }\r\n   \r\n   function multyswap(address[] calldata path, uint256 amountIn) external payable {\r\n      \r\n      address[] memory tempPath = new address[](2);\r\n      address receiver;\r\n\r\n      if (path[0]!=WBNB) {\r\n         IBEP20(path[0]).transferFrom(msg.sender, address(this), amountIn);\r\n      } else {\r\n         amountIn = msg.value;\r\n      }\r\n\r\n\r\n      for (uint8 i=0; i<path.length-1; ++i) {\r\n         tempPath[0] = path[i];\r\n         tempPath[1] = path[i+1];\r\n         if (i != path.length-2) {\r\n            receiver = address(this);\r\n         } else {\r\n            receiver = msg.sender;\r\n         }\r\n         if (tempPath[0] == WBNB) {\r\n            IPancakeRouter01(pancakeRouterAddress).swapExactETHForTokens{value: amountIn}( \r\n               0,\r\n               path,\r\n               receiver,\r\n               block.timestamp + 100\r\n            );\r\n            amountIn = IBEP20(tempPath[1]).balanceOf(address(this));\r\n         } else if (tempPath[1] == WBNB) {\r\n            IBEP20(tempPath[0]).approve(pancakeRouterAddress, amountIn);\r\n            IPancakeRouter01(pancakeRouterAddress).swapExactTokensForETH(\r\n               amountIn,\r\n               0,\r\n               tempPath,\r\n               receiver,\r\n               block.timestamp + 100\r\n            );\r\n            amountIn = address(this).balance;\r\n         } else {\r\n            IBEP20(tempPath[0]).approve(pancakeRouterAddress, amountIn); \r\n            IPancakeRouter01(pancakeRouterAddress).swapExactTokensForTokens(\r\n               amountIn,\r\n               0,\r\n               tempPath,\r\n               receiver,\r\n               block.timestamp + 100\r\n            );\r\n            amountIn = IBEP20(tempPath[1]).balanceOf(address(this));  \r\n         }\r\n\r\n      } \r\n   }\r\n\r\n}",
  "sourcePath": "C:\\Users\\xmari\\Documents\\projects\\germes\\contract\\contracts\\testContract.sol",
  "compiler": {
    "name": "solc",
    "version": "0.8.0+commit.c7dfd78e.Emscripten.clang"
  },
  "schemaVersion": "3.4.4",
  "updatedAt": "2022-01-15T20:44:30.543Z",
  "devdoc": {
    "kind": "dev",
    "methods": {},
    "version": 1
  },
  "userdoc": {
    "kind": "user",
    "methods": {},
    "version": 1
  }
}