{
  "contractName": "vSwapContract",
  "abi": [
    {
      "inputs": [],
      "stateMutability": "nonpayable",
      "type": "constructor"
    },
    {
      "inputs": [
        {
          "internalType": "uint256",
          "name": "amountIn",
          "type": "uint256"
        },
        {
          "internalType": "uint256",
          "name": "amountOutMin",
          "type": "uint256"
        },
        {
          "internalType": "address[]",
          "name": "path",
          "type": "address[]"
        },
        {
          "internalType": "address[]",
          "name": "pairPath",
          "type": "address[]"
        },
        {
          "internalType": "uint256[]",
          "name": "fee",
          "type": "uint256[]"
        },
        {
          "internalType": "address",
          "name": "to",
          "type": "address"
        },
        {
          "internalType": "uint256",
          "name": "deadline",
          "type": "uint256"
        }
      ],
      "name": "vSwap",
      "outputs": [
        {
          "internalType": "bool",
          "name": "success",
          "type": "bool"
        }
      ],
      "stateMutability": "nonpayable",
      "type": "function"
    }
  ],
  "bytecode": "0x608060405234801561001057600080fd5b50336000806101000a81548173ffffffffffffffffffffffffffffffffffffffff021916908373ffffffffffffffffffffffffffffffffffffffff160217905550611b46806100606000396000f3fe608060405234801561001057600080fd5b506004361061002b5760003560e01c80635b3aaa2614610030575b600080fd5b61004a60048036038101906100459190611122565b610060565b604051610057919061162c565b60405180910390f35b600081428110156100a6576040517f08c379a000000000000000000000000000000000000000000000000000000000815260040161009d906116e7565b60405180910390fd5b60008054906101000a900473ffffffffffffffffffffffffffffffffffffffff1673ffffffffffffffffffffffffffffffffffffffff163373ffffffffffffffffffffffffffffffffffffffff1614610134576040517f08c379a000000000000000000000000000000000000000000000000000000000815260040161012b90611767565b60405180910390fd5b60006102058d8c8c80806020026020016040519081016040528093929190818152602001838360200280828437600081840152601f19601f820116905080830192505050505050508b8b80806020026020016040519081016040528093929190818152602001838360200280828437600081840152601f19601f820116905080830192505050505050508a8a80806020026020016040519081016040528093929190818152602001838360200280828437600081840152601f19601f820116905080830192505050505050506103ee565b9050600192508b816001835161021b919061190c565b81518110610252577f4e487b7100000000000000000000000000000000000000000000000000000000600052603260045260246000fd5b6020026020010151101561026657506103df565b61034f8b8b60008181106102a3577f4e487b7100000000000000000000000000000000000000000000000000000000600052603260045260246000fd5b90506020020160208101906102b89190611081565b338b8b60008181106102f3577f4e487b7100000000000000000000000000000000000000000000000000000000600052603260045260246000fd5b90506020020160208101906103089190611081565b84600081518110610342577f4e487b7100000000000000000000000000000000000000000000000000000000600052603260045260246000fd5b60200260200101516106df565b6103dd818c8c80806020026020016040519081016040528093929190818152602001838360200280828437600081840152601f19601f820116905080830192505050505050508b8b80806020026020016040519081016040528093929190818152602001838360200280828437600081840152601f19601f8201169050808301925050505050505088610818565b505b509a9950505050505050505050565b6060600284511015610435576040517f08c379a000000000000000000000000000000000000000000000000000000000815260040161042c906116c7565b60405180910390fd5b835167ffffffffffffffff811115610476577f4e487b7100000000000000000000000000000000000000000000000000000000600052604160045260246000fd5b6040519080825280602002602001820160405280156104a45781602001602082028036833780820191505090505b50905084816000815181106104e2577f4e487b7100000000000000000000000000000000000000000000000000000000600052603260045260246000fd5b60200260200101818152505060005b600185516104ff919061190c565b8110156106d6576000806105e0868481518110610545577f4e487b7100000000000000000000000000000000000000000000000000000000600052603260045260246000fd5b6020026020010151888581518110610586577f4e487b7100000000000000000000000000000000000000000000000000000000600052603260045260246000fd5b60200260200101518960018761059c919061182b565b815181106105d3577f4e487b7100000000000000000000000000000000000000000000000000000000600052603260045260246000fd5b6020026020010151610b10565b91509150610670848481518110610620577f4e487b7100000000000000000000000000000000000000000000000000000000600052603260045260246000fd5b60200260200101518383888781518110610663577f4e487b7100000000000000000000000000000000000000000000000000000000600052603260045260246000fd5b6020026020010151610c18565b8460018561067e919061182b565b815181106106b5577f4e487b7100000000000000000000000000000000000000000000000000000000600052603260045260246000fd5b602002602001018181525050505080806106ce906119e5565b9150506104f1565b50949350505050565b6000808573ffffffffffffffffffffffffffffffffffffffff166323b872dd868686604051602401610713939291906115f5565b6040516020818303038152906040529060e01b6020820180517bffffffffffffffffffffffffffffffffffffffffffffffffffffffff838183161783525050505060405161076191906115de565b6000604051808303816000865af19150503d806000811461079e576040519150601f19603f3d011682016040523d82523d6000602084013e6107a3565b606091505b50915091508180156107d157506000815114806107d05750808060200190518101906107cf91906110aa565b5b5b610810576040517f08c379a000000000000000000000000000000000000000000000000000000000815260040161080790611787565b60405180910390fd5b505050505050565b60005b8251811015610b0957600080858381518110610860577f4e487b7100000000000000000000000000000000000000000000000000000000600052603260045260246000fd5b602002602001015186600185610876919061182b565b815181106108ad577f4e487b7100000000000000000000000000000000000000000000000000000000600052603260045260246000fd5b60200260200101519150915060006108c58383610d37565b5090506000886001866108d8919061182b565b8151811061090f577f4e487b7100000000000000000000000000000000000000000000000000000000600052603260045260246000fd5b602002602001015190506000808373ffffffffffffffffffffffffffffffffffffffff168673ffffffffffffffffffffffffffffffffffffffff16146109575782600061095b565b6000835b91509150600060018a5161096f919061190c565b881061097b57886109c9565b89600189610989919061182b565b815181106109c0577f4e487b7100000000000000000000000000000000000000000000000000000000600052603260045260246000fd5b60200260200101515b9050898881518110610a04577f4e487b7100000000000000000000000000000000000000000000000000000000600052603260045260246000fd5b602002602001015173ffffffffffffffffffffffffffffffffffffffff1663022c0d9f848484600067ffffffffffffffff811115610a6b577f4e487b7100000000000000000000000000000000000000000000000000000000600052604160045260246000fd5b6040519080825280601f01601f191660200182016040528015610a9d5781602001600182028036833780820191505090505b506040518563ffffffff1660e01b8152600401610abd94939291906117a7565b600060405180830381600087803b158015610ad757600080fd5b505af1158015610aeb573d6000803e3d6000fd5b50505050505050505050508080610b01906119e5565b91505061081b565b5050505050565b6000806000610b1f8585610d37565b5090506000808773ffffffffffffffffffffffffffffffffffffffff16630902f1ac6040518163ffffffff1660e01b815260040160606040518083038186803b158015610b6b57600080fd5b505afa158015610b7f573d6000803e3d6000fd5b505050506040513d601f19601f82011682018060405250810190610ba391906110d3565b506dffffffffffffffffffffffffffff1691506dffffffffffffffffffffffffffff1691508273ffffffffffffffffffffffffffffffffffffffff168773ffffffffffffffffffffffffffffffffffffffff1614610c02578082610c05565b81815b8095508196505050505050935093915050565b6000808511610c5c576040517f08c379a0000000000000000000000000000000000000000000000000000000008152600401610c5390611667565b60405180910390fd5b600084118015610c6c5750600083115b610cab576040517f08c379a0000000000000000000000000000000000000000000000000000000008152600401610ca290611747565b60405180910390fd5b600061271090506000610cd9610cca8584610e6590919063ffffffff16565b88610ebe90919063ffffffff16565b90506000610cf08683610ebe90919063ffffffff16565b90506000610d1b83610d0d6127108b610ebe90919063ffffffff16565b610f2b90919063ffffffff16565b90508082610d299190611881565b945050505050949350505050565b6000808273ffffffffffffffffffffffffffffffffffffffff168473ffffffffffffffffffffffffffffffffffffffff161415610da9576040517f08c379a0000000000000000000000000000000000000000000000000000000008152600401610da090611687565b60405180910390fd5b8273ffffffffffffffffffffffffffffffffffffffff168473ffffffffffffffffffffffffffffffffffffffff1610610de3578284610de6565b83835b8092508193505050600073ffffffffffffffffffffffffffffffffffffffff168273ffffffffffffffffffffffffffffffffffffffff161415610e5e576040517f08c379a0000000000000000000000000000000000000000000000000000000008152600401610e5590611707565b60405180910390fd5b9250929050565b6000828284610e74919061190c565b9150811115610eb8576040517f08c379a0000000000000000000000000000000000000000000000000000000008152600401610eaf90611647565b60405180910390fd5b92915050565b600080821480610ee6575082828385610ed791906118b2565b925082610ee49190611881565b145b610f25576040517f08c379a0000000000000000000000000000000000000000000000000000000008152600401610f1c906116a7565b60405180910390fd5b92915050565b6000828284610f3a919061182b565b9150811015610f7e576040517f08c379a0000000000000000000000000000000000000000000000000000000008152600401610f7590611727565b60405180910390fd5b92915050565b600081359050610f9381611a9d565b92915050565b60008083601f840112610fab57600080fd5b8235905067ffffffffffffffff811115610fc457600080fd5b602083019150836020820283011115610fdc57600080fd5b9250929050565b60008083601f840112610ff557600080fd5b8235905067ffffffffffffffff81111561100e57600080fd5b60208301915083602082028301111561102657600080fd5b9250929050565b60008151905061103c81611ab4565b92915050565b60008151905061105181611acb565b92915050565b60008135905061106681611ae2565b92915050565b60008151905061107b81611af9565b92915050565b60006020828403121561109357600080fd5b60006110a184828501610f84565b91505092915050565b6000602082840312156110bc57600080fd5b60006110ca8482850161102d565b91505092915050565b6000806000606084860312156110e857600080fd5b60006110f686828701611042565b935050602061110786828701611042565b92505060406111188682870161106c565b9150509250925092565b60008060008060008060008060008060e08b8d03121561114157600080fd5b600061114f8d828e01611057565b9a505060206111608d828e01611057565b99505060408b013567ffffffffffffffff81111561117d57600080fd5b6111898d828e01610f99565b985098505060608b013567ffffffffffffffff8111156111a857600080fd5b6111b48d828e01610f99565b965096505060808b013567ffffffffffffffff8111156111d357600080fd5b6111df8d828e01610fe3565b945094505060a06111f28d828e01610f84565b92505060c06112038d828e01611057565b9150509295989b9194979a5092959850565b61121e81611940565b82525050565b61122d81611952565b82525050565b600061123e826117f3565b61124881856117fe565b93506112588185602086016119b2565b61126181611a8c565b840191505092915050565b6000611277826117f3565b611281818561180f565b93506112918185602086016119b2565b80840191505092915050565b60006112aa60158361181a565b91507f64732d6d6174682d7375622d756e646572666c6f7700000000000000000000006000830152602082019050919050565b60006112ea60228361181a565b91507f4c6962726172793a20494e53554646494349454e545f494e5055545f414d4f5560008301527f4e540000000000000000000000000000000000000000000000000000000000006020830152604082019050919050565b600061135060218361181a565b91507f4c69627261727920536f72743a204944454e544943414c5f414444524553534560008301527f53000000000000000000000000000000000000000000000000000000000000006020830152604082019050919050565b60006113b660148361181a565b91507f64732d6d6174682d6d756c2d6f766572666c6f770000000000000000000000006000830152602082019050919050565b60006113f660158361181a565b91507f4c6962726172793a20494e56414c49445f5041544800000000000000000000006000830152602082019050919050565b6000611436600e8361181a565b91507f76537761703a20455850495245440000000000000000000000000000000000006000830152602082019050919050565b6000611476601a8361181a565b91507f4c69627261727920536f72743a205a45524f5f414444524553530000000000006000830152602082019050919050565b60006114b660148361181a565b91507f64732d6d6174682d6164642d6f766572666c6f770000000000000000000000006000830152602082019050919050565b60006114f6601f8361181a565b91507f4c6962726172793a20494e53554646494349454e545f4c4951554944495459006000830152602082019050919050565b600061153660178361181a565b91507f76537761703a206e6f7420617574686f72697365643a200000000000000000006000830152602082019050919050565b600061157660248361181a565b91507f5472616e7366657248656c7065723a205452414e534645525f46524f4d5f464160008301527f494c4544000000000000000000000000000000000000000000000000000000006020830152604082019050919050565b6115d881611998565b82525050565b60006115ea828461126c565b915081905092915050565b600060608201905061160a6000830186611215565b6116176020830185611215565b61162460408301846115cf565b949350505050565b60006020820190506116416000830184611224565b92915050565b600060208201905081810360008301526116608161129d565b9050919050565b60006020820190508181036000830152611680816112dd565b9050919050565b600060208201905081810360008301526116a081611343565b9050919050565b600060208201905081810360008301526116c0816113a9565b9050919050565b600060208201905081810360008301526116e0816113e9565b9050919050565b6000602082019050818103600083015261170081611429565b9050919050565b6000602082019050818103600083015261172081611469565b9050919050565b60006020820190508181036000830152611740816114a9565b9050919050565b60006020820190508181036000830152611760816114e9565b9050919050565b6000602082019050818103600083015261178081611529565b9050919050565b600060208201905081810360008301526117a081611569565b9050919050565b60006080820190506117bc60008301876115cf565b6117c960208301866115cf565b6117d66040830185611215565b81810360608301526117e88184611233565b905095945050505050565b600081519050919050565b600082825260208201905092915050565b600081905092915050565b600082825260208201905092915050565b600061183682611998565b915061184183611998565b9250827fffffffffffffffffffffffffffffffffffffffffffffffffffffffffffffffff0382111561187657611875611a2e565b5b828201905092915050565b600061188c82611998565b915061189783611998565b9250826118a7576118a6611a5d565b5b828204905092915050565b60006118bd82611998565b91506118c883611998565b9250817fffffffffffffffffffffffffffffffffffffffffffffffffffffffffffffffff048311821515161561190157611900611a2e565b5b828202905092915050565b600061191782611998565b915061192283611998565b92508282101561193557611934611a2e565b5b828203905092915050565b600061194b82611978565b9050919050565b60008115159050919050565b60006dffffffffffffffffffffffffffff82169050919050565b600073ffffffffffffffffffffffffffffffffffffffff82169050919050565b6000819050919050565b600063ffffffff82169050919050565b60005b838110156119d05780820151818401526020810190506119b5565b838111156119df576000848401525b50505050565b60006119f082611998565b91507fffffffffffffffffffffffffffffffffffffffffffffffffffffffffffffffff821415611a2357611a22611a2e565b5b600182019050919050565b7f4e487b7100000000000000000000000000000000000000000000000000000000600052601160045260246000fd5b7f4e487b7100000000000000000000000000000000000000000000000000000000600052601260045260246000fd5b6000601f19601f8301169050919050565b611aa681611940565b8114611ab157600080fd5b50565b611abd81611952565b8114611ac857600080fd5b50565b611ad48161195e565b8114611adf57600080fd5b50565b611aeb81611998565b8114611af657600080fd5b50565b611b02816119a2565b8114611b0d57600080fd5b5056fea2646970667358221220176f5f2d794376c2c9e01b378a9f4cbef5f49c47234a8323c64cc346f895ab2964736f6c63430008000033",
  "immutableReferences": {},
  "source": "// SPDX-License-Identifier: GPL-3.0\r\npragma solidity >=0.6.6;\r\n\r\nlibrary SafeMath {\r\n    function add(uint256 x, uint256 y) internal pure returns (uint256 z) {\r\n        require((z = x + y) >= x, \"ds-math-add-overflow\");\r\n    }\r\n\r\n    function sub(uint256 x, uint256 y) internal pure returns (uint256 z) {\r\n        require((z = x - y) <= x, \"ds-math-sub-underflow\");\r\n    }\r\n\r\n    function mul(uint256 x, uint256 y) internal pure returns (uint256 z) {\r\n        require(y == 0 || (z = x * y) / y == x, \"ds-math-mul-overflow\");\r\n    }\r\n}\r\n\r\npragma solidity >=0.5.0;\r\n\r\ninterface IPancakePair {\r\n    event Transfer(address indexed from, address indexed to, uint256 value);\r\n\r\n    function getReserves()\r\n        external\r\n        view\r\n        returns (\r\n            uint112 reserve0,\r\n            uint112 reserve1,\r\n            uint32 blockTimestampLast\r\n        );\r\n\r\n    function swap(\r\n        uint256 amount0Out,\r\n        uint256 amount1Out,\r\n        address to,\r\n        bytes calldata data\r\n    ) external;\r\n}\r\n\r\nlibrary PancakeLibrary {\r\n    using SafeMath for uint256;\r\n\r\n    // returns sorted token addresses, used to handle return values from pairs sorted in this order\r\n    function sortTokens(address tokenA, address tokenB)\r\n        internal\r\n        pure\r\n        returns (address token0, address token1)\r\n    {\r\n        require(tokenA != tokenB, \"Library Sort: IDENTICAL_ADDRESSES\");\r\n        (token0, token1) = tokenA < tokenB\r\n            ? (tokenA, tokenB)\r\n            : (tokenB, tokenA);\r\n        require(token0 != address(0), \"Library Sort: ZERO_ADDRESS\");\r\n    }\r\n\r\n    // fetches and sorts the reserves for a pair\r\n    function getReserves(\r\n        address pairAddress,\r\n        address tokenA,\r\n        address tokenB\r\n    ) internal view returns (uint256 reserveA, uint256 reserveB) {\r\n        (address token0, ) = sortTokens(tokenA, tokenB);\r\n        (uint256 reserve0, uint256 reserve1, ) = IPancakePair(pairAddress)\r\n            .getReserves();\r\n        (reserveA, reserveB) = tokenA == token0\r\n            ? (reserve0, reserve1)\r\n            : (reserve1, reserve0);\r\n    }\r\n\r\n    // given an input amount of an asset and pair reserves, returns the maximum output amount of the other asset\r\n    function getAmountOut(\r\n        uint256 amountIn,\r\n        uint256 reserveIn,\r\n        uint256 reserveOut,\r\n        uint256 fee\r\n    ) internal pure returns (uint256 amountOut) {\r\n        require(amountIn > 0, \"Library: INSUFFICIENT_INPUT_AMOUNT\");\r\n        require(\r\n            reserveIn > 0 && reserveOut > 0,\r\n            \"Library: INSUFFICIENT_LIQUIDITY\"\r\n        );\r\n        uint256 tenThousand = 10000;\r\n        uint256 amountInWithFee = amountIn.mul(tenThousand.sub(fee));\r\n        uint256 numerator = amountInWithFee.mul(reserveOut);\r\n        uint256 denominator = reserveIn.mul(10000).add(amountInWithFee);\r\n        amountOut = numerator / denominator;\r\n    }\r\n\r\n    // performs chained getAmountOut calculations on any number of pairs\r\n    function getAmountsOut(\r\n        uint256 amountIn,\r\n        address[] memory path,\r\n        address[] memory pairPath,\r\n        uint256[] memory fee\r\n    ) internal view returns (uint256[] memory amounts) {\r\n        require(path.length >= 2, \"Library: INVALID_PATH\");\r\n        amounts = new uint256[](path.length);\r\n        amounts[0] = amountIn;\r\n        for (uint256 i; i < path.length - 1; i++) {\r\n            (uint256 reserveIn, uint256 reserveOut) = getReserves(\r\n                pairPath[i],\r\n                path[i],\r\n                path[i + 1]\r\n            );\r\n            amounts[i + 1] = getAmountOut(\r\n                amounts[i],\r\n                reserveIn,\r\n                reserveOut,\r\n                fee[i]\r\n            );\r\n        }\r\n    }\r\n}\r\n\r\ncontract vSwapContract {\r\n    address private owner;\r\n\r\n    modifier onlyOwner() {\r\n        require(msg.sender == owner, \"vSwap: not authorised: \");\r\n        _;\r\n    }\r\n\r\n    modifier ensure(uint256 deadline) {\r\n        require(deadline >= block.timestamp, \"vSwap: EXPIRED\");\r\n        _;\r\n    }\r\n\r\n    constructor() {\r\n        owner = msg.sender;\r\n    }\r\n\r\n    function safeTransferFrom(\r\n        address token,\r\n        address from,\r\n        address to,\r\n        uint256 value\r\n    ) internal {\r\n        // bytes4(keccak256(bytes('transferFrom(address,address,uint256)')));\r\n        (bool success, bytes memory data) = token.call(\r\n            abi.encodeWithSelector(0x23b872dd, from, to, value)\r\n        );\r\n        require(\r\n            success && (data.length == 0 || abi.decode(data, (bool))),\r\n            \"TransferHelper: TRANSFER_FROM_FAILED\"\r\n        );\r\n    }\r\n\r\n    function _swap(\r\n        uint256[] memory amounts,\r\n        address[] memory path,\r\n        address[] memory pairPath,\r\n        address _to\r\n    ) internal virtual {\r\n        for (uint256 i; i < pairPath.length; i++) {\r\n            (address input, address output) = (path[i], path[i + 1]);\r\n            (address token0, ) = PancakeLibrary.sortTokens(input, output);\r\n            uint256 amountOut = amounts[i + 1];\r\n            (uint256 amount0Out, uint256 amount1Out) = input == token0\r\n                ? (uint256(0), amountOut)\r\n                : (amountOut, uint256(0));\r\n            address to = i < pairPath.length - 1 ? pairPath[i + 1] : _to;\r\n            IPancakePair(pairPath[i]).swap(\r\n                amount0Out,\r\n                amount1Out,\r\n                to,\r\n                new bytes(0)\r\n            );\r\n        }\r\n    }\r\n\r\n    function vSwap(\r\n        uint256 amountIn,\r\n        uint256 amountOutMin,\r\n        address[] calldata path,\r\n        address[] calldata pairPath,\r\n        uint256[] calldata fee,\r\n        address to,\r\n        uint256 deadline\r\n    ) external virtual ensure(deadline) onlyOwner returns (bool success) {\r\n        uint256[] memory amounts = PancakeLibrary.getAmountsOut(\r\n            amountIn,\r\n            path,\r\n            pairPath,\r\n            fee\r\n        );\r\n        success = true;\r\n        if (amounts[amounts.length - 1] < amountOutMin) return success;\r\n        safeTransferFrom(path[0], msg.sender, pairPath[0], amounts[0]);\r\n        _swap(amounts, path, pairPath, to);\r\n        return success;\r\n    }\r\n}",
  "sourcePath": "C:\\Users\\xmari\\Documents\\projects\\germes\\contract\\contracts\\germes2.sol",
  "compiler": {
    "name": "solc",
    "version": "0.8.0+commit.c7dfd78e.Emscripten.clang"
  },
  "schemaVersion": "3.4.4",
  "updatedAt": "2022-01-15T20:44:30.518Z",
  "devdoc": {
    "kind": "dev",
    "methods": {},
    "version": 1
  },
  "userdoc": {
    "kind": "user",
    "methods": {},
    "version": 1
  }
}